:020000040800F2
:10000000282400208D0200086D29000871250008B1
:10001000692900081D0C0008894400080000000040
:10002000000000000000000000000000A90200081D
:100030002519000800000000AD020008153900086D
:10004000B1020008B1020008B1020008B1020008C4
:10005000B1020008B1020008511A0008671A00082E
:10006000B1020008B1020008B1020008B1020008A4
:10007000B1020008B1020008B1020008B102000894
:10008000B1020008B1020008B1020008B102000884
:10009000210C0008B1020008B10200087D1A000816
:1000A000B1020008B1020008B1020008B102000864
:1000B000B1020008B1020008B1020008B102000854
:1000C000B1020008B1020008B1020008B102000844
:1000D000B1020008F93D0008B1020008B1020008B1
:1000E000B1020008B1020008B1020008B102000824
:1000F000B1020008B1020008B1020008B102000814
:10010000B1020008B1020008B1020008B102000803
:10011000B1020008B102000899390008B1020008D4
:10012000B1020008B1020008B1020008B1020008E3
:10013000B1020008B1020008B1020008B1020008D3
:10014000690D0008B1020008B1020008B102000800
:100150005D160008B1020008B1020008394000082D
:10016000B1020008B1020008B1020008B1020008A3
:10017000B1020008B1020008B1020008000000004E
:10018000B1020008B10200085D3D0008B13D000861
:10019000B1020008B1020008B1020008B102000873
:1001A0000000000000000000B102000800F002F8AA
:1001B00000F05CF80AA090E8000C82448344AAF1A5
:1001C0000107DA4501D100F051F8AFF2090EBAE8A3
:1001D0000F0013F0010F18BFFB1A43F0010318477B
:1001E000187F0000387F00000A444FF0000C10F820
:1001F000013B13F0070408BF10F8014B1D1108BFA5
:1002000010F8015B641E05D010F8016B641E01F844
:10021000016BF9D113F0080F1EBF10F8014BAD1C94
:100220000C1B09D16D1E58BF01F801CBFAD505E0B2
:1002300014F8016B01F8016B6D1EF9D59142D6D30C
:10024000704700000023002400250026103A28BF34
:1002500078C1FBD8520728BF30C148BF0B60704738
:100260001FB507F057F81FBD10B510BD00F08BF992
:100270001146FFF7F5FF05F09BFF00F0A9F903B465
:10028000FFF7F2FF03BC00F0B9F900000C48016869
:1002900041F4700101600B4880470B480047FEE7BE
:1002A000FEE7FEE7FEE7FEE7FEE7FEE7FEE7FEE726
:1002B000FEE7000005480649044A064B7047000067
:1002C00088ED00E031390008AD0100082820002049
:1002D00028240020282000209FED1A1AF5EE000A9D
:1002E00040EE010ABDEEE00AF5EEC00A10EE100A7B
:1002F000F1EE10FA38BF401E00EE100A1349F7EE77
:10030000001AB8EEC00A30EEC00ADFED0F0A20EE88
:10031000200AFCEEC00A10EE900AC0F3080000EEBE
:10032000900A01EB8000F8EE600A90ED011A70EE81
:10033000600A90ED000A71EEE01A21EE800A00EEEC
:10034000810A704783F9223E00000044F4780008D7
:10035000DFED190AB5EEC00A60EE200ABDEEE01A24
:1003600011EE100AF1EE10FA38BF401E00EE100A2E
:100370001349F7EE001AB8EEC00A30EEC00ADFEDFE
:100380000F0A60EE200ABCEEE00A10EE100AC0F37D
:10039000080000EE100A01EB8000B8EE400A90ED74
:1003A000011A70EEC00A90ED000A71EEE01A21EE1B
:1003B000800A00EE810A704783F9223E0000004463
:1003C000F4780008032A40F2308010F0030C00F0AB
:1003D000158011F8013BBCF1020F624498BF11F87F
:1003E00001CB00F8013B38BF11F8013BA2F1040238
:1003F00098BF00F801CB38BF00F8013B11F00303B0
:1004000000F02580083AC0F0088051F8043B083A13
:1004100051F804CBA0E80810F5E7121D5CBF51F8B5
:10042000043B40F8043BAFF30080D20724BF11F82F
:10043000013B11F801CB48BF11F8012B24BF00F894
:10044000013B00F801CB48BF00F8012B704710B505
:10045000203AC0F00B80B1E81850203AA0E81850BC
:10046000B1E81850A0E81850BFF4F5AF5FEA027C7D
:1004700024BFB1E81850A0E8185044BF18C918C0EC
:10048000BDE810405FEA827C24BF51F8043B40F88D
:10049000043B08BF7047D20728BF31F8023B48BF72
:1004A00011F8012B28BF20F8023B48BF00F8012BB0
:1004B00070474FF000020429C0F0128010F0030CC6
:1004C00000F01B80CCF1040CBCF1020F18BF00F847
:1004D000012BA8BF20F8022BA1EB0C0100F00DB8F6
:1004E0005FEAC17C24BF00F8012B00F8012B48BF54
:1004F00000F8012B70474FF0000200B513469446F8
:100500009646203922BFA0E80C50A0E80C50B1F16B
:100510002001BFF4F7AF090728BFA0E80C5048BF7F
:100520000CC05DF804EB890028BF40F8042B08BF1D
:10053000704748BF20F8022B11F0804F18BF00F819
:10054000012B7047704770477047000000487047A4
:10055000C81F00201FB584B000200A9C06AB04AA67
:1005600002A90094AFF3008018B1DDE9020108B0E0
:1005700010BD0348204000F039F800200146F6E79E
:100580000000207C70477546FFF7E0FFAE4605008F
:100590006946534620F00700854618B020B5FFF79E
:1005A00089FEBDE820404FF000064FF000074FF0F5
:1005B00000084FF0000B21F00701AC46ACE8C00981
:1005C000ACE8C009ACE8C009ACE8C0098D4670478A
:1005D00010B50446AFF300802046BDE81040FFF799
:1005E0004EBE002801D000F009B8704710B500F0E9
:1005F00025F8BDE81040FFF7F4BF000001491820BE
:10060000ABBEFEE72600020070B505460C460A2088
:1006100000E06D1C00F068F835B128780028F8D1AA
:1006200002E0641C00F060F814B120780028F8D1D2
:10063000BDE870400A2000F057B8000010B502284D
:1006400003D0410103D50DA112E0002010BD01012E
:1006500001D50FA10CE0C10001D511A108E0810076
:1006600001D512A104E0400001D513A100E0002152
:1006700015A0FFF7C9FF012010BD0000496E76618B
:100680006C6964204F7065726174696F6E00000060
:10069000446976696465204279205A65726F00006A
:1006A0004F766572666C6F7700000000556E64656A
:1006B00072666C6F77000000496E65786163742024
:1006C000526573756C7400005349474650453A2093
:1006D00041726974686D65746963206578636570DB
:1006E00074696F6E3A20000008B569468DF8000005
:1006F0000320ABBE08BD10B5044605F08FF820609E
:1007000005F094F8606005F07DF8A06010BD000071
:1007100010B50248FFF7EFFF10BD0000581F002082
:1007200038B51448806890ED000ADFED130A20EE1A
:10073000200ABCEEC00A10EE100A80B20D4C0090E8
:10074000646863880B4C646822780A4C24682189A9
:10075000084C2468646800EE104ADFED070A20EEBA
:10076000200ABCEEC00A10EE104AA0B200F006F853
:1007700038BD0000581F00200000C8422DE9FF418D
:1007800016460024AA222146641C33484254FF2204
:100790002146641C4254F2222146641C4254092220
:1007A0002146641C42549DF800202146641C42549A
:1007B0009DF801202146641C42549DF804202146E6
:1007C000641C42549DF805202046611CCCB222498D
:1007D0000A542046611CCCB21F490E549DF80C20CF
:1007E0002046611CCCB21C490A549DF80D202046BD
:1007F000611CCCB218490A549DF828202046611C7F
:10080000CCB215490A549DF829202046611CCCB26F
:1008100011490A5400250027002007E00E49095C11
:100820002944CDB27919CFB2411CC8B20A49C9785E
:10083000091D8142F2DC2046611CCCB206490D54F0
:100840002046611CCCB204490F542146024803F0F3
:1008500089FABDE8FF810000641F002030B5002246
:100860000024C5788B1F9D4200D030BD002306E0D8
:10087000C55C1544EAB2A518ECB25D1CEBB28D1E46
:100880009D42F5DC431813F8023C934204D143180F
:1008900013F8013CA34200D0E7E70378AA2B05D167
:1008A0004378612B03D04378FF2B00D0DDE78378BA
:1008B000012B2AD1B0F90A3000EE103AB8EEC00A86
:1008C000DFED2E0A20EE200A2D4B83ED000AB0F951
:1008D0000C3000EE103AB8EEC00ADFED280A20EE28
:1008E000200A274B83ED010AB0F90E3000EE103AD2
:1008F000B8EEC00ADFED210A20EE200A204B83ED7E
:10090000020A037C1F4D2B7035E08378032B32D114
:10091000B0F9043000EE103AF8EEC00A9FED1A1A52
:1009200080EE810ADFED190A80EE201A184B83ED64
:10093000021AB0F9063000EE103AF8EEC00A9FED48
:10094000121A80EE810ADFED110A80EE201A104B98
:1009500083ED011AB0F9083000EE103AF8EEC00A43
:100960009FED091A80EE810ADFED080A80EE201A59
:10097000074B83ED001A00BF77E70000B3EF8A3A18
:100980004C160020280100200000C8423333654285
:100990005816002010B504463F48007838B9AA2CF4
:1009A00005D101203C4908703C48047072E03A4887
:1009B0000078012809D1612C01D0FF2C05D102203B
:1009C000354908703548447064E03348007802289F
:1009D00005D1032030490870304884705AE02E4811
:1009E000007803280CD1FA2C0ADA04202A4908706E
:1009F0002A48C4702A48047000202A49087049E037
:100A000025480078042819D125480078002815DDEC
:100A100023480078401E2249087022480078214966
:100A20000978491C1F4A1170001D1C490C541C48B0
:100A3000007858BB0520184908702BE0164800784C
:100A400005280DD10620144908701648007815496C
:100A50000978491C134A1170001D10490C5419E003
:100A60000D480078062812D100200B4908700D4867
:100A70000078001D09490C540A480078401D0A49B5
:100A80000870084601780548FFF7E8FE02E00020FC
:100A90000149087010BD00002C010020801C0020BE
:100AA0002A0100202B0100202901002010B588B068
:100AB00004460121102002F003F90121880702F009
:100AC0000FF908220721254801F0EEFC0822114603
:100AD000224801F0E9FC4FF4C070069002208DF826
:100AE0001C008DF81D0000208DF81E0001208DF8DF
:100AF0001F0006A9194801F08FFC02940020ADF8F0
:100B00000C00ADF80E00ADF81000ADF814000C208C
:100B1000ADF8120002A9124803F002FC01211048AE
:100B200003F014FB40210E4803F0F8FA012240F2D2
:100B300025510B4803F0CFFB52208DF80400032011
:100B40008DF8050000208DF8060001208DF80700C3
:100B500001A801F00DFF08B010BD00000010024018
:100B60000078004010B596215A2003F055FDFA2078
:100B700004F0FEFB03F048FD10BD000038B54FF453
:100B8000407001F031FF4FF47A7004F0BBFB05F0C8
:100B900091FA05F043FB04F057FD05F063FA5A2182
:100BA0004FF4AF7003F0D4FC002005231A46012156
:100BB000009000F051F801F047FA03F03BFD05F01A
:100BC0003FFD05F053FE01F01BFB002408E020462A
:100BD00005F058FB40F2C52004F0F2FB601CC4B2E3
:100BE000042CF4DB05F016FDFFF7BCFF5A2147F299
:100BF000305003F0ADFC02F0CDF9074801F026FEBD
:100C00000548FFF753FFFFF783FD01F0C9FD01F031
:100C10007FFB01F0BFFB38BD20A1070000BFFEE74E
:100C200010B50221094800F0E7F970B10120084928
:100C300008700221054800F007F9064A0021034820
:100C400000F0FDFA034800F005FC10BD0064004010
:100C500038000020A00300202DE9F0418AB00446AE
:100C60000D4616461F46DDF840800121082002F09F
:100C700027F80121480602F033F80121480602F066
:100C80003FF800214FF0007002F03AF8032008907E
:100C900002208DF8240000208DF8260003208DF816
:100CA000250001208DF8270008A92D4801F0B4FB8C
:100CB000092200212A4801F0F7FB092201212848D6
:100CC00001F0F2FB00208DF81A0001208DF81B00C6
:100CD00000208DF81C008DF81D008DF81E008DF889
:100CE0001F008DF816808DF817408DF818608DF86C
:100CF0001950ADF8147005A91A4800F016FA002032
:100D00008DF80E008DF80F0001208DF810000020E6
:100D1000ADF80400ADF80600ADF80800ADF80A0023
:100D2000ADF80C0001208DF8110001A800F0E0F8EA
:100D3000012202210B4800F0EFF914208DF8000089
:100D400004208DF8010000208DF8020001208DF8AC
:100D50000300684601F00CFE00200AB0BDE8F081F7
:100D6000000C02400064004010B50221084800F069
:100D700043F958B10221064800F066F8054A0021FF
:100D8000034800F05CFA034800F064FB10BD00006B
:100D900000680040B4030020F0B585B004460D465D
:100DA00016461F464FF40070009000208DF8080092
:100DB0008DF8090008208DF80A00200A8DF80B0034
:100DC000E1B28DF80C10290A8DF80D10E9B28DF8FA
:100DD0000E10310A8DF80F10F1B28DF81010390A8B
:100DE0008DF81110F9B28DF812106946024800F022
:100DF0009EFA05B0F0BD0000006400402DE9F0410E
:100E000004460D4616461F4640F2FF100C49086086
:100E100000200872487208208872200AC8720846AA
:100E20000473290A41738573310AC1730674390A40
:100E3000417487740146034800F079FABDE8F081F7
:100E40008C03002000640040B1F5007F3AD00FDC35
:100E5000202928D006DC01291CD004291DD008290E
:100E600040D11DE0402921D0B1F5807F3AD126E064
:100E7000B1F5004F31D006DCB1F5806F25D0B1F56A
:100E8000006F2FD124E0B1F5803F12D0B1F5003FC3
:100E900028D111E0154A826025E00822C26022E0D4
:100EA0001022C2601FE0082202611CE010220261D1
:100EB00019E00822426016E01022426013E004228A
:100EC000426010E0042242600DE0042242600AE029
:100ED000002282610422426005E000228261042235
:100EE000426000E000BF00BF704700000101010048
:100EF00010B50021837A012202FA03F13D4A1268FB
:100F000042F001023B4B1A603A4A1C3212688A4393
:100F1000384B1C331A60027BCAB9364A0C3212684D
:100F20008A43344B0C331A604288C38842EA034335
:100F3000304A4032847A42F834300288838842EA68
:100F400003432C4A4032847A02EBC4025360027B92
:100F5000012A19D1274A0C3212680A43254B0C3357
:100F60001A604288038842EA0343224A4032847A64
:100F700042F83430C288838842EA03431D4A403233
:100F8000847A02EBC4025360C27A3AB9194A121D3C
:100F900012688A43174B1B1D1A6006E0154A121D82
:100FA00012680A43134B1B1D1A60028932B9114A99
:100FB000143212688A430F4B14331A600289012AD3
:100FC00006D10C4A143212680A430A4B14331A60D1
:100FD000427B012A06D1074A1C3212680A43054B9C
:100FE0001C331A60034A126822F00102014B1A6096
:100FF00010BD00000066004070B504460D46002696
:1010000060692840002871D0B5F5807F5CD010DC85
:10101000082D35D006DC012D20D0022D24D0042D42
:1010200072D127E0102D31D0202D35D0402D6BD13D
:1010300038E0B5F5004F60D009DCB5F5007F49D048
:10104000B5F5806F4CD0B5F5006F5DD14FE0B5F5CB
:10105000803F2DD0B5F5003F56D12FE0A0682D4937
:1010600000F0F2FA064651E0E068032100F0ECFAE5
:1010700006464BE0E068082100F0E6FA064645E047
:10108000E068102100F0E0FA06463FE02069032105
:1010900000F0DAFA064639E02069082100F0D4FAB7
:1010A000064633E02069102100F0CEFA06462DE016
:1010B0006068082100F0C8FA064627E06068102141
:1010C00000F0C2FA064621E0A069012100F0BCFA56
:1010D00006461BE0A069022100F0B6FA064615E0BC
:1010E000A069042100F0B0FA06460FE00FE0A06905
:1010F000702100F0A9FA064608E06068042100F0BB
:10110000A3FA064602E0FFE7002600BF00E0002643
:10111000304670BD010101001AB143690B434361C0
:1011200002E043698B434361704730B502460020BB
:101130000023146824F002041460146844F00104CD
:10114000146000E05B1C546804F001041CB94FF605
:10115000FF74A342F6D1546804F001040CB90020D6
:101160006CE08C79012C04D1146844F08004146084
:1011700003E0146824F080041460CC79012C04D1BD
:10118000146844F04004146003E0146824F0400440
:1011900014600C7A012C04D1146844F0200414600B
:1011A00003E0146824F0200414604C7A012C04D16C
:1011B000146844F01004146003E0146824F0100470
:1011C00014608C7A012C04D1146844F00804146073
:1011D00003E0146824F008041460CC7A012C04D1D4
:1011E000146844F00404146003E0146824F0040458
:1011F00014608C78A407CD7844EA05640D7944EA3C
:1012000005444D7944EA05540D886D1E2C43D46184
:10121000146824F001041460002300E05B1C54688F
:1012200004F001041CB14FF6FF74A342F6D15468D8
:1012300004F001040CB1002000E0012030BD10B525
:1012400000F5D87303EB01131B6803F0040313725A
:10125000137A53B900F5D87303EB01131B6840F2FE
:10126000FF7404EA5353136009E000F5D87303EBED
:1012700001131B686FF0604404EAD303536000F568
:10128000D87303EB01131B6803F00203537200F5DC
:10129000D87303EB01135B6803F00F03937200F53F
:1012A000D87303EB01135B681B0AD37400F5D87382
:1012B00003EB01139B68D37200F5D87303EB0113A2
:1012C0009B681C0A147300F5D87303EB01139B6829
:1012D0001C0C547300F5D87303EB01139B681B0EB1
:1012E000937300F5D87303EB0113DB68D37300F538
:1012F000D87303EB0113DB681C0A147400F5D87370
:1013000003EB0113DB681C0C547400F5D87303EB7A
:101310000113DB681B0E937421B9C36843F02003EB
:10132000C36003E0036943F02003036110BD10B5FF
:1013300002460020936803F08063B3F1806F00D110
:1013400010E0936803F00063B3F1006F01D1012056
:1013500008E0936803F08053B3F1805F01D102206D
:1013600000E00420042874D002F5C07303EB0013DE
:101370001B6803F0010402F5C07303EB00131C604B
:101380000B7A7BB94B7A0C8843EA445302F5C0745C
:1013900004EB00142468234302F5C07404EB00142A
:1013A000236010E00B7A4C6843EAC4034C7A234371
:1013B00002F5C07404EB00142468234302F5C074E2
:1013C00004EB001423608B7A03F00F038B7202F599
:1013D000C07303EB00135B6823F00F0402F5C073C6
:1013E00003EB00135C6002F5C07303EB00135B6852
:1013F0008C7A234302F5C07404EB001463608B7B8A
:101400001C064B7B44EA03440B7B44EA0323CC7A5F
:10141000234302F5C07404EB0014A3608B7C1C060C
:101420004B7C44EA03440B7C44EA0323CC7B2343F8
:1014300002F5C07404EB0014E36002F5C07303EB23
:1014400000131B6843F0010402F5C07303EB0013A3
:101450001C6010BD40F205230168CA1A994214D0DD
:101460000ADCA1F2012100297ED001297DD00229C8
:101470007CD003297BD180E0012A22D0022A3CD0F3
:10148000032A56D0FD2AF5D1B6E06849098809B289
:10149000664A1181017BC27A41EA0221634A1180C6
:1014A000827B417B42EA012109B2604A9180027C41
:1014B000C17B42EA012109B25C4A5180417C9171B1
:1014C000B1E05B49098809B2594A1181017BC27AAE
:1014D00041EA0221564A1180827B417B42EA012186
:1014E00009B2534A9180027CC17B42EA012109B2D0
:1014F0004F4A5180417C917195E04E49098809B26B
:101500004C4A1181017BC27A41EA0221494A118089
:10151000827B417B42EA012109B2464A5180027C2A
:10152000C17B42EA012109B2424A9180417C91711A
:1015300079E04149098809B23F4A1181017BC27AA9
:1015400041EA02213C4A1180827B417B42EA01212F
:1015500009B2394A9180027CC17B42EA012109B279
:10156000354A5180417C03E004E004E004E059E0A6
:10157000917158E000BF00BF00BF0178491E2F4A9B
:1015800011701146097801EB81012D4A32F81110D2
:1015900009B22A4A127802EB8202294B03EB42027B
:1015A0001181017BC27A41EA0221244A127802EBBE
:1015B000820223F81210827B417B42EA012109B2A8
:1015C0001E4A127802EB820203EB42025180027C37
:1015D000C17B42EA012109B2184A127802EB820269
:1015E00003EB42029180417C144A127802EB8202A2
:1015F00003EB4202917116E0C17A124A1170017B2D
:101600005170827B417B42EA01210E4A5180817BED
:101610001171C17B5171017C9171417CD171817CCF
:10162000117200E000BF00BF7047000030030020CF
:101630003A0300204E03002044030020390000201C
:1016400058030020800300200246002002EA010324
:101650000BB1012000E000207047000010B50649E2
:10166000064800F00FF928B10349044800F008F8D3
:1016700004F0C4FD10BD0000000800208864024092
:101680000246094B9A4201D2084801E00648103848
:1016900001F000531BB1064B0B40C36002E0044B4A
:1016A0000B408360704700001064024000600240FD
:1016B0007D0F7D0F21B1026842F00102026003E05C
:1016C000026822F00102026070470000016821F008
:1016D000010101600021016041608160C160016120
:1016E000212141614A49884204D13D21484A103AAA
:1016F00091608CE046491831884205D14FF47461FD
:10170000434A103A916082E041493031884205D124
:101710004FF474113E4A103A916078E03C494831E8
:10172000884205D14FF07461394A103A91606EE0F9
:1017300037496031884204D13649354A103AD16080
:1017400065E033497831884204D13349304A103A50
:10175000D1605CE02E499031884204D12F492C4A57
:10176000103AD16053E02A49A831884205D14FF0A0
:101770003D51274A103AD16049E02949884204D1B5
:101780003D21274A083A116041E025491831884235
:1017900005D14FF47461224A083A116037E02049BC
:1017A0003031884205D14FF474111D4A083A116056
:1017B0002DE01B494831884205D14FF07461184A29
:1017C000083A116023E016496031884204D111497A
:1017D000134A121F11601AE011497831884204D16E
:1017E0000D490F4A121F116011E00D4990318842D6
:1017F00004D10A490A4A121F116008E00849A831B9
:10180000884204D14FF03D51054A121F11607047C4
:10181000106002403D000020400F002000003D20ED
:101820001064024021B1026842F48022026003E0A9
:10183000026822F480220260704722B1036843F4F8
:101840000023036003E0036823F4002303600161C5
:101850007047014600200A6802F001020AB1012027
:1018600000E0002070470146486880B2704701469A
:1018700000200A6802F400220AB1012000E00020E2
:101880007047000030B503460A46002000240B4D87
:10189000AB4201D20A4901E00849103902F0005573
:1018A0000DB14C6800E00C68064D2C4004EA0205BE
:1018B0000DB1012000E0002030BD000010640240A6
:1018C000006002407D0F7D0F10B500220268134BAF
:1018D0001A40CC680B6823434C6923438C6923432B
:1018E000CC6923430C6A23434C6A23438C6A234309
:1018F0004C6B23438C6B23431A430260426922F0F2
:101900000702D1E90B3423431A4342610B69436058
:101910004B6883608B68C36010BD00003F801CF083
:10192000416070477047000010B5044604EBC400E6
:10193000454901EB8000006804EBC401424A02EB18
:10194000810148604148006804EBC40102EB810159
:10195000086004EBC400114601EB8000C07CC0F3BA
:101960008010B0B104EBC40001EB8000C07C20F01B
:10197000400004EBC40102EB8101C87404EBC40015
:10198000114601EB8000006804EBC40102EB810109
:10199000C86004EBC4002C4901EB8000806990B35F
:1019A00004EBC401284A02EB81018869804758B3DF
:1019B00004EBC400244901EB8000C07C20F020002F
:1019C000203004EBC401204A02EB8101C87404EB0F
:1019D000C400114601EB8000C07C20F08000803004
:1019E00004EBC40102EB8101C87404EBC40011468E
:1019F00001EB8000006A28B304EBC40102EB810113
:101A0000086A80471EE00FE0FFE704EBC4000E49C0
:101A100001EB8000C07C20F0800004EBC4010A4A86
:101A200002EB8101C8740DE004EBC400064901EB30
:101A30008000C07C20F0800004EBC401024A02EB6D
:101A40008101C87410BD0000000600203000002095
:101A500010B5012000F028F820B1012000F01EF898
:101A600004F0F8FE10BD10B5022000F01DF820B102
:101A7000022000F013F804F0F3FE10BD10B54FF48F
:101A8000807000F011F840B14FF4807000F006F85B
:101A900004F0BCFB172001F003FB10BD01490860F6
:101AA00070470000143C014001460020034A1268C0
:101AB0000A400AB1012000E000207047143C0140B8
:101AC000002123498279002A3AD00A461268036825
:101AD0009A430B461A600A1D126803689A430B1D4D
:101AE0001A60027911440A6803681A430A60184AA6
:101AF0000832126803689A43154B08331A601A1D9E
:101B0000126803689A43124B0C331A604279102A08
:101B10000ED11A1F126803681A430D4B08331A605E
:101B20001A1D126803681A43094B0C331A600DE042
:101B30000749427911440A6803681A430A6005E0BC
:101B4000027911440A6803689A430A6070470000EA
:101B5000003C014010B5044604B910BD94F8B8002B
:101B600020B904F10C0004F0C5F910E094F8B800B5
:101B7000012804D104F10C0004F08EF907E094F878
:101B8000B800022803D104F10C0004F0C4F994F861
:101B9000980120B904F1EC0004F0ACF910E094F8DD
:101BA0009801012804D104F1EC0004F075F907E074
:101BB00094F89801022803D104F1EC0004F0ABF989
:101BC00000BFCAE710B52DED028B044614B9BDEC79
:101BD000028B10BD606890ED010A84ED6B0AB4F8C9
:101BE0009A11D4F8EC20108804F0EEFA84ED690A1A
:101BF000A06890ED010AB1EE400A84ED6D0A6068BC
:101C000090ED000AB1EE400A84ED330AB4F8BA1040
:101C1000E268108804F0D8FA84ED310AD4ED690A3C
:101C2000B0EE600AFEF758FBA068D0ED020A20EE85
:101C3000208AD4ED690AB0EE600AFEF789FBA0683D
:101C4000D0ED000A00EE608A84ED358A00BFBEE761
:101C500010B5044603F0DAFDE06003F0C7FDC4F8F8
:101C6000EC0003F0BBFD606003F0BCFDA06003F07E
:101C7000D9FD2060002184F8B91084F8B81084F8E8
:101C8000991184F898119FED4D2ADFED4D1AB3EEAE
:101C9000091ADFED4B0AB2EE040A04F1100000F05D
:101CA00063F99FED472ADFED461A9FED451ADFEDF8
:101CB000440A9FED440A04F1400000F055F9DFEDBD
:101CC000420A9FED420A424A002104F1700000F0EE
:101CD0008DFFB6EE002ADFED3A1AB2EE001ADFED04
:101CE000380A9FED3C0A04F1F00000F03DF99FED49
:101CF000342ADFED331A9FED321ADFED310AB2EEEE
:101D0000040A04F5907000F02FF9DFED2F0A9FED23
:101D10002F0A314A002104F5A87000F067FF04F192
:101D2000100000F00DFC04F1400000F009FC04F18B
:101D3000700000F08BFF04F1F00000F001FC04F5EE
:101D4000907000F0FDFB04F5A87000F07FFF41F6F5
:101D50003251A4F8BA104FF4E151A4F89A119FED52
:101D60001F0A84ED2F0A9FED1E0A84ED300A9FEDB5
:101D70001D0A84ED670ABDEE000A84ED680A20465C
:101D8000FFF720FF94ED330A84ED340A94ED310A15
:101D900084ED320A94ED350A84ED360A94ED6B0A2F
:101DA00084ED6C0A94ED690A84ED6A0A94ED6D0A7B
:101DB00084ED6E0A01200C49087010BDCDCCCC3EDC
:101DC000000000000000C84200409C450060EA4658
:101DD000C075000800401C46B4750008CDCC4C3ED0
:101DE000CDCC4CBE6666E63E7600002000B970475A
:101DF00090F8B91069B190F8B81051B9B0F9E8107D
:101E000000EE101AB8EEC00A80ED390A80ED380AEB
:101E100018E090F8B910012908D090F8B8100129FD
:101E200004D190ED330A80ED340A0BE090F8B9103C
:101E3000022907D090F8B810022903D190ED310A99
:101E400080ED320A90F8B82080F8B92090F8991106
:101E500069B190F8981151B9B0F9C81100EE101A93
:101E6000B8EEC00A80ED710A80ED700A18E090F8B3
:101E70009911012908D090F89811012904D190ED09
:101E80006B0A80ED6C0A0BE090F89911022907D0DB
:101E900090F89811022903D190ED690A80ED6A0A41
:101EA00090F8982180F8992100BFA0E710B52DED9A
:101EB000048B0446B0EE408AF0EE608AB0EE419AA0
:101EC00024B99FED260ABDEC048B10BD84ED048A75
:101ED000C4ED038A78EEC89A9FED211ADFED210A3E
:101EE000B0EE690A04F034F984ED050A94ED000AB5
:101EF000D4ED050A20EE200A84ED080A94ED090AC3
:101F0000D4ED010A94ED051A00EE810A84ED090A68
:101F100094ED020A20EE090A84ED0A0AD4ED070ABC
:101F2000B0EE600A04F1240002F0CFFA94ED080A42
:101F3000D4ED090A30EE200AD4ED0A0A30EE200A68
:101F400084ED0B0AD4ED060AB0EE600A04F12C0011
:101F500002F0BBFA94ED0B0AB5E7000000000000A8
:101F6000DB0F4940DB0F49C000B9704780ED001A14
:101F7000C0ED011A80ED022ADFED062AC0ED052A28
:101F8000DFED042AC0ED042AC0ED070A80ED060A41
:101F900000BFEAE7000000001CB5044604B91CBD00
:101FA0009FED230A8DED010A9FED210A8DED000AB8
:101FB0002246694601A803F0E3FC94F8B80020B972
:101FC0009DED010A84ED380A13E094F8B800012869
:101FD00006D19DED010A04F10C0000F03DF808E087
:101FE00094F8B800022804D101A904F10C0000F013
:101FF000ADF894F8980120B99DED000A84ED700ABF
:1020000013E094F89801012806D19DED000A04F12F
:10201000EC0000F021F808E094F89801022804D1BF
:10202000694604F1EC0000F091F800BFB7E700004A
:102030000000000010B5044604B910BD204603F0AE
:1020400057FD00BFF9E7000010B50248FFF700FE9A
:1020500010BD00004407002010B52DED028B044692
:10206000B0EE408A14B9BDEC028B10BDD4ED310A3C
:1020700094ED301A70EEC10AB0EE600A9FED2F1A8F
:10208000DFED2F0A04F064F82E4880ED000A94ED8D
:102090002E0AD0ED000A30EE200A30EE080AD4ED08
:1020A0002C0AB4EEE00AF1EE10FA11DDB5EEC08AAA
:1020B000F1EE10FA2DDD94ED2C0AD4ED2E0A30EE5F
:1020C000600AD0ED000A30EE600AB0EE408A20E0EF
:1020D00094ED2E0A1B48D0ED000A30EE200A30EEB7
:1020E000080AD4ED2D0AB4EEE00AF1EE10FA10D28F
:1020F000B5EEC08AF1EE10FA0BD294ED2D0AD4EDB4
:102100002E0A30EE600AD0ED000A30EE600AB0EE22
:10211000408A94ED310A0C4880ED000AD0ED000AA7
:1021200070EE880AB0EE600A9FED041ADFED040A33
:1021300004F00EF884ED310A00BF94E7DB0F49404C
:10214000DB0F49C0780000207C00002000B97047F8
:1021500090ED2F0AD1ED000A30EE200A80ED2F0A13
:1021600090ED2F0AD0ED2C0AB4EEE00AF1EE10FA51
:1021700004DD90ED2C0A80ED2F0A0CE090ED2F0A83
:10218000D0ED2D0AB4EEE00AF1EE10FA03D290ED94
:102190002D0A80ED2F0A00BFD9E7000010B51448C2
:1021A000FFF748FF1248FFF721FE1148FFF70AFD2D
:1021B0000F48FFF7F1FE0E48FFF7CCFC04F034FAAD
:1021C0000B48B0F8E8000B4908800948B0F8C8018E
:1021D0000949088000230948B0F900200846B0F9F1
:1021E00000100448B0F90000FEF708FE10BD000022
:1021F00044070020700000207200002074000020BE
:1022000000B58BB00121082000F06AFD012180207B
:1022100000F056FD02220A213B4800F045F94FF438
:102220008060099002208DF8280003208DF8290095
:1022300000208DF82A0001208DF82B0009A93248D2
:1022400000F0EAF85920ADF818000020ADF81A00A7
:1022500044F61F6007900020ADF8200006A92B4827
:1022600001F03AFD6020ADF804000120ADF8060051
:102270000020ADF8100001A9244801F0DBFB082183
:10228000224801F015FC0121204801F097FB0121B3
:102290001E4801F0A2FB02220B211B4800F004F9AA
:1022A0004FF40060099002208DF8280003208DF87B
:1022B000290000208DF82A0001208DF82B0009A9A3
:1022C000114800F0A9F86020ADF804000120ADF835
:1022D00006000020ADF8100001A90C4801F0F2FB47
:1022E00008210A4801F040FC0121084801F066FB82
:1022F0000121064801F071FB4FF4BE61034801F073
:10230000E4FC0BB000BD0000001C0240000C0040CB
:1023100000B585B00121202000F0D2FC0121880306
:1023200000F0FEFC0021052000F0F4FE01200090EA
:1023300000208DF8040001208DF8060000208DF8A3
:10234000070003208DF805006946114800F064F885
:102350000120029000208DF80C000C208DF80D005B
:1023600001208DF80E0002A8FFF7AAFB06208DF8C9
:10237000100005208DF8110000208DF812000120BA
:102380008DF8130004A800F0F3FA05B000BD0000BA
:102390000014024000B585B00121202000F090FC1F
:1023A0000121880300F0BCFC0121052000F0B2FEF1
:1023B0000220009000208DF8040001208DF8060016
:1023C00000208DF8070003208DF8050069461148AC
:1023D00000F022F80220029000208DF80C000C2062
:1023E0008DF80D0001208DF80E0002A8FFF768FBA4
:1023F00007208DF8100005208DF8110000208DF8C1
:10240000120001208DF8130004A800F0B1FA05B005
:1024100000BD000000140240F0B50A460021002370
:10242000002400BF3DE0012505FA01F3156805EA27
:1024300003049C4234D105684F000326BE40B543D7
:10244000056015794E00B54006683543056015797D
:10245000012D02D01579022D16D185684F00032673
:10246000BE40B543856055794E00B540866835431A
:102470008560456801268E40B5434560456896797C
:102480008E40B6B235434560C5684F000326BE4056
:10249000B543C560D5794E00B540C6683543C560C3
:1024A000491C1029BFD3F0BDF0B5002300244D070F
:1024B000ED0E02FA05F3CE1000F1200555F8265076
:1024C0004E07F70E0F26BE40B543CF1000F1200691
:1024D00046F82750CE1000F1200555F8265045EA61
:1024E0000304CE1000F1200545F82640F0BD4183DD
:1024F00070470183704742694A404261704700005B
:1025000000BF0E4A11684FF0E02252694FF0E023FD
:102510009B69D21A4FF47A735A434FF0E0235B69F8
:10252000B2FBF3F201EB4103C3EBC11302EBC300B7
:10253000024A12689142E4D1704700003000002046
:1025400000B970479FED090A80ED040A80ED030A87
:1025500080ED050A9FED050A80ED0A0A80ED090A63
:1025600080ED080A80ED0B0A00BFEAE700000000DA
:1025700000BFFEE770B50024A52506E1864802F0FD
:1025800047FF04468548006890F8860006287DD2FB
:10259000DFE800F003223C6A83B1AC4216D101208F
:1025A0007E49096881F886007C480068B0F8871089
:1025B0007A480068B0F88700401C784A1268A2F890
:1025C000870076480068801D445404E00020734969
:1025D0000968A1F88700D7E07048006884806F48D8
:1025E0000068B0F887106D480068B0F88700401C9C
:1025F0006A4A1268A2F8870068480068801D44543F
:1026000002206649096881F88600BDE063480068D9
:10261000808840EA04206149096888805F48006832
:10262000B0F887105D480068B0F88700401C5B4A2E
:102630001268A2F8870059480068801D4454574822
:1026400000688088772805D203205449096881F8FA
:10265000860008E000205149096881F886004F494A
:102660000968A1F887008FE04C480068B0F887102F
:102670004A480068B0F88700401C484A1268A2F82F
:10268000870046480068801D445400E072E0042042
:102690004249096881F8860076E040480068B0F851
:1026A00087103E480068B0F88700401C3B4A12681B
:1026B000A2F8870039480068801D445437480068F4
:1026C000B0F88700052815D1052134480068801D21
:1026D00004F0F6F828B105203049096881F8860031
:1026E00008E000202D49096881F886002B49096817
:1026F000A1F8870048E029480068B0F8871027480B
:10270000006880880930814210D224480068B0F8FF
:10271000871022480068B0F88700401C1F4A1268E2
:10272000A2F887001D480068801D44541B480068BB
:10273000B0F887101948006880880930814218D3A2
:1027400000201649096881F8860014490968A1F833
:10275000870012480068808800F109010F4800686E
:10276000801D04F08DF820B10C480068801D03F036
:10277000DDFD09E000200949096881F88600074964
:102780000968A1F8870000BF00BF034802F0B8FE47
:1027900000287FF4F3AE70BD04100020100100206B
:1027A000FF20294981F84E0064212748A0F85010E5
:1027B0000121A0F85210FF20234981F880016421F3
:1027C0002148A0F882110021A0F88411FF201E49A1
:1027D00081F8200100211C48A0F82211A0F8241142
:1027E000FF20194981F8320100211748A0F834115F
:1027F000A0F83611FF20144981F838010021124851
:10280000A0F83A11A0F83C11FF200F4981F8860189
:1028100000210D48A0F88811A0F88A11FF200A496C
:1028200081F8400500210848A0F84215A0F8441599
:10283000FF20054981F84C0500210348A0F84E15FA
:10284000A0F85015704700006416002010B588B03D
:1028500004460121102000F033FA0121C80700F0DE
:102860003FFA082200212448FFF71EFE082201211A
:102870002148FFF719FE0320069002208DF81C0066
:102880008DF81D0000208DF81E0001208DF81F001E
:1028900006A91948FFF7C0FD02940020ADF80C000E
:1028A000ADF80E00ADF81000ADF814000C20ADF836
:1028B000120002A9114801F033FD01210F4801F077
:1028C00045FC40210D4801F029FC012240F2255130
:1028D0000A4801F000FD53208DF8040001208DF816
:1028E000050000208DF8060001208DF8070001A8E2
:1028F00000F03EF808B010BD00100240007C00401F
:1029000010B5104840680F490860FFF7F9FD0D4900
:1029100048600D49C8600B4840680A490968401A78
:1029200008498860FFF73AFCFDF7FAFEFFF7E8FD7B
:102930000549086108460069C968401A02494861AA
:1029400010BD0000E00B0020EC0B0020704710B51C
:1029500003F0B0FD10BD7047704710B502F070FC79
:1029600003F0A4FD10BD704700BFFEE770470000F4
:1029700070B5002100230F22C4781CB3174C2468C3
:1029800004F4E064C4F5E064C4F30721C1F1040475
:10299000E3B20A4144789C40E1B284781440214378
:1029A0000C07210E0E4C05786155047804F01F05C4
:1029B0000124AC4005786D11AD0005F1E025C5F8A6
:1029C000004109E0047804F01F050124AC40054DE6
:1029D0000678761145F8264070BD00000CED00E049
:1029E00000E400E080E100E002490143024A116096
:1029F000704700000000FA050CED00E0B0EE401A50
:102A000010B99FED790A704790ED100A80ED110A18
:102A100090ED0F0A80ED100AC0ED060A80ED071A4E
:102A200030EEC10A80ED0F0A0178002975D190EDD2
:102A3000010AD0ED0F1A20EE210A80ED090A90ED6F
:102A40000A0AD0ED021A90ED0F2A01EE820A80EDFB
:102A50000A0A90ED0D0A80ED0E0A90ED0C0A80ED49
:102A60000D0A90ED0F0AD0ED101A30EE610A80EDDC
:102A70000C0A90ED030AD0ED0C1A20EE210A80ED2D
:102A80000B0A90ED0A0AD0ED051AB4EEE10AF1EE58
:102A900010FA04DD90ED050A80ED0A0A10E090EDD1
:102AA0000A0AD0ED051AF1EE611AB4EEE10AF1EE70
:102AB00010FA05D290ED050AB1EE400A80ED0A0A3F
:102AC00090ED090AD0ED0A1A30EE210AD0ED0B1A6A
:102AD00030EE210A80ED080A90ED080AD0ED041AC4
:102AE000B4EEE10AF1EE10FA04DD90ED040A80ED97
:102AF000080A76E090ED080AD0ED041AF1EE611AAA
:102B0000B4EEE10AF1EE10FA6BD290ED040AB1EEE8
:102B1000400A80ED080A64E0FFE70178012960D1EE
:102B200090ED0F0AD0ED101A30EE610AD0ED011AC7
:102B300020EE210A80ED090A90ED020AD0ED0F1A6D
:102B400020EE210A80ED0A0A90ED0D0A80ED0E0AB2
:102B500090ED0C0A80ED0D0A90ED0F0AD0ED101AE1
:102B6000B0EE002A02EE610AD0ED111A30EE210A11
:102B700080ED0C0A90ED030AD0ED0C1A20EE210A2C
:102B800080ED0B0A90ED090AD0ED0A1A30EE210A09
:102B9000D0ED0B1A30EE210AD0ED081A30EE210AE2
:102BA00080ED080A90ED080AD0ED041AB4EEE10AAF
:102BB000F1EE10FA04DD90ED040A80ED080A10E051
:102BC00090ED080AD0ED041AF1EE611AB4EEE10AB4
:102BD000F1EE10FA05D290ED040AB1EE400A80ED54
:102BE000080A90ED080A0EE70000000000B102B9E3
:102BF0007047017092ED001A80ED011A92ED011AF2
:102C000080ED021A92ED021A80ED031A80ED040A9B
:102C1000C0ED050A9FED0C1A80ED0E1A80ED0D1A1D
:102C200080ED0C1A9FED081A80ED081A80ED0B1A42
:102C300080ED0A1A80ED091A80ED111A80ED101A44
:102C400080ED0F1A00BFD3E70000000000B9704705
:102C50009FED100A80ED110A80ED100A80ED0F0A39
:102C60009FED0C0A80ED0E0A80ED0D0A80ED0C0A36
:102C70009FED080A80ED0B0A80ED0A0A80ED090A33
:102C800080ED080A9FED030A80ED060A80ED070A31
:102C900000BFDCE70000000010B540F20E61024802
:102CA00001F013F810BD0000000C004010B54FF407
:102CB000BE61024801F009F810BD0000000C0040A0
:102CC00029B1064A12680243044B1A6004E0034A21
:102CD00012688243014B1A6070470000303802408E
:102CE00029B1064A12680243044B1A6004E0034A01
:102CF00012688243014B1A6070470000403802405E
:102D000029B1064A12680243044B1A6004E0034AE0
:102D100012688243014B1A6070470000203802405D
:102D200029B1064A12680243044B1A6004E0034AC0
:102D300012688243014B1A60704700004438024019
:102D400029B1064A12680243044B1A6004E0034AA0
:102D500012688243014B1A60704700002438024019
:102D6000F0B5002100220024022500260223324F64
:102D70003F6807F00C0121B1042905D0082937D19B
:102D800005E02E4F076036E02D4F076033E02A4FF5
:102D90003F1F3F68C7F38056274F3F1F3F6807F02C
:102DA0003F036EB1264FB7FBF3F7DFF88CC0ACF1F1
:102DB000040CDCF800C0CCF3881C07FB0CF40CE01E
:102DC0001E4FB7FBF3F7DFF870C0ACF1040CDCF872
:102DD00000C0CCF3881C07FB0CF4174F3F1F3F6863
:102DE000C7F301477F1C7D00B4FBF5F7076002E0E5
:102DF000124F076000BF00BF0F4F3F6807F0F001A0
:102E00000909104F7A5C0768D74047600A4F3F684E
:102E100007F4E051890A0B4F7A5C4768D740876016
:102E2000054F3F6807F46041490B064F7A5C4768DD
:102E3000D740C760F0BD0000083802400024F4000D
:102E4000001BB7001400002070B590B004460E4679
:102E5000154601214A48FFF733FF01211020FFF7F3
:102E60005FFF01211020FFF76BFF00211020FFF70B
:102E700067FF072211464348FFF716FB80200E909C
:102E800002208DF83C0000208DF83E0003208DF8D4
:102E90003D0000208DF83F000EA93A48FFF7BCFA2C
:102EA000394801F069F939480A900020ADF82C0042
:102EB000ADF82E004FF48060ADF830000420ADF87E
:102EC00032000020ADF834000AA92F4801F028FA9A
:102ED000012240212C4801F045F910212A4801F037
:102EE0001DF9012240F22441274801F0F4F90121A3
:102EF000254801F02BF925208DF83C0004208DF8A1
:102F00003D0000208DF83E0001208DF83F000FA805
:102F1000FFF72EFD1E48FEF7D9FB4FF00060019031
:102F20001948001D02900394002004900595069016
:102F30004FF4806007900020089009904FF4807053
:102F40000A904FF440300B9000200C900D900E90A2
:102F50000F9001A90E48FEF7B7FC002231460C483D
:102F6000FEF76BFC01210A48FEF75CFC00210848D3
:102F7000FEF7A0FB01210648FEF79CFB10B070BDD8
:102F8000020040000004024000100140A086010041
:102F90004064024010B503F003F84FF48062064924
:102FA000064802F052FA4FF400720549A1F500708C
:102FB00000F09AFF10BD00001C100020041000203B
:102FC000040E002000B101B970470278437842EA4C
:102FD0000322C2F30A020A804278D210837842EABE
:102FE0004312C2F30A024A8082789211C37842EAFD
:102FF0008302037942EA8322C2F30A028A800279B9
:103000005210437942EAC312C2F30A02CA804279DB
:10301000C2F301128A72427912119308CB7282793B
:10302000C37942EA032212B28A81027A437A42EADF
:10303000032213B201F10C02CB81827AC37A42EAF5
:10304000032213B201F10C020B82037B8B74437BCE
:10305000CB74827BC37B42EA03228A82027C437C5C
:1030600042EA032212B20A810A88A2F5806212B2F1
:103070000A804A88A2F5806212B24A808A88A2F544
:10308000806212B28A80CA88A2F5806212B2CA80B7
:103090000A89A2F5806212B20A8100BF94E700009B
:1030A00010B5044600211848FEF704FB002116481D
:1030B0001830FEF7FFFA00BF1348FEF7CAFB0028DE
:1030C000FAD100BF10481830FEF7C3FB0028F9D131
:1030D0000E490D481830FEF7D3FA0D490A48FEF79D
:1030E000CFFA21460848FEF71BFC21460648183057
:1030F000FEF716FC012104481830FEF7DBFA012127
:103100000148FEF7D7FA10BD70640240000C0020A1
:103110003000002030B500228B071C0F0F2303FA6C
:1031200004F20B4B8C1053F824309343084C8D1051
:1031300044F8253023468C1053F824308C07240F94
:1031400000FA04F42343024C8D1044F8253030BDBE
:103150000838014070B5002400BF1EE000F0D4FB29
:10316000054604EB44000E4901EB80008068281AF4
:1031700004EB44010A4A02EB8101C98888420AD360
:1031800004EB4400114601EB8000856004EB440130
:1031900052F821008047601CC4B2072CDED370BDFA
:1031A0009C000020002000BF1FE000EB4001104AFF
:1031B00002EB810189884FF47A7292FBF1F100EB06
:1031C00040020B4B03EB8202D18000EB40011A4618
:1031D00002EB8101C988012905DA012100EB4002D7
:1031E00003EB8202D180411CC8B20728DDD37047AF
:1031F0009C0000202DE9F04F87B004460D4616468E
:103200001F46DDE912ABDDE91089002006908DF83C
:103210000C008DF80D0008208DF80E0040F20130F2
:103220000690069801908DF80F408DF810508DF89B
:1032300011608DF812708DF813808DF814908DF850
:1032400015A08DF816B001A90248FEF770F807B076
:10325000BDE8F08F006400400CB5002001900090A4
:103260004148006840F480303F49086000BF3E4854
:10327000006800F4003000900198401C0190009814
:1032800018B90198B0F5A04FF1D13748006800F4A3
:10329000003010B10120009001E000200090009863
:1032A000012860D130484030006840F080502E49FD
:1032B000403108602D48006840F440402B490860C8
:1032C0002948083000682849083108600846006825
:1032D00040F4004008600846006840F4A0500860D0
:1032E0002348091F0860081F006840F08070091F0C
:1032F000086000BF1C48006800F000700028F9D08A
:103300001A48006840F480301849086000BF174828
:10331000406800F480300028F9D01448006840F478
:1033200000301249086000BF1048406800F40030C7
:103330000028F9D040F205700E4908600A480830AC
:10334000006820F00300084908310860084600685A
:1033500040F00200086000BF03480830006800F039
:103360000C000828F8D10CBD003802400070004065
:10337000062D4008003C024010B53C4890F84C0037
:1033800058B93A4890F8300038B902F0DDF9FFF743
:103390008DFC00203649088066E09FED360A3348F0
:1033A000001D02F07FFF314890ED020AD0ED040AC3
:1033B000B4EE600AF1EE10FA04D19FED2E0A183037
:1033C00002F070FF294890ED070AD0ED090AB4EE2B
:1033D000600AF1EE10FA06D09FED270A80ED0F0A81
:1033E000002180F84E10214890ED020ABCEEC00A80
:1033F00010EE100A214908801C4890ED070ABCEE27
:10340000C00A10EE100A1E4908801C48008802F00D
:1034100007F91B48008802F00DF9144890ED0F1AC7
:10342000F0EE410A90ED0E1AB0EE410A1548FFF792
:10343000E5FA144890ED080ABDEEC00A10EE100A35
:1034400001B20A48A0F84810B0F84800404200B263
:1034500007490880054890F84E00012802D1FFF77F
:103460001BFC01E0FFF722FC10BD0000740B0020E4
:103470007400002000004843000000009800002075
:103480009A0000202C0B0020704890ED000A704834
:1034900080ED000A6F4890ED000A6C4880ED000A4C
:1034A0006D4890ED000A6948D0ED000A20EE200A30
:1034B0006948D0ED010A664890ED001A01EE200A35
:1034C0006648C06AB0F9020000EE900AF8EEE00A21
:1034D0009FED631A60EE810A5F4890ED021A00EEDC
:1034E000810A5C4880ED000A90ED000AB1EE400AC6
:1034F0005A4880ED0E0AC06A00885849C96AB1F975
:103500000810401AB0F5805F08DD544890F84A0072
:10351000401E41B2514880F84A1012E04F48C06A3C
:1035200000884E49C96AB1F90810401A10F5805F49
:1035300007DA4A4890F84A00401C41B2474880F8F0
:103540004A10464890F84A00122804D1EF21434817
:1035500080F84A1008E0414890F94A00123018B942
:1035600011213E4880F84A103C4890F94A00C0EBCF
:1035700040303A49C96A0988084400EE100AB8EE9A
:10358000C00ADFED380A20EE600A344880ED100AE8
:1035900090F8511080F8531090F8521080F85410A1
:1035A0000068817C2D4880F851102F480068C17C4C
:1035B0002A4880F8521090F8510070B12748B0F8AE
:1035C0005600B0F5C87F0CDA2448B0F85600401C0D
:1035D00081B22248A0F8561003E000211F48A0F84D
:1035E00056101E4890F8520070B11C48B0F85800B0
:1035F000B0F5C87F0CDA1948B0F85800401C81B209
:103600001648A0F8581003E000211448A0F85810FC
:10361000124890F8300098B110480068C07A02282B
:103620000ED10E48B0F85A00B0F5FA6F0CDA0B481C
:10363000B0F85A00401C81B20848A0F85A1003E0C4
:1036400000210648A0F85A107047000090000020A2
:103650008C00002094000020E4750008740B00200A
:10366000F1A23E3BC2B8B23784000020044890F873
:10367000301080F8311090F84C1080F84D107047E1
:10368000740B0020434890F84C0018B9414890F85A
:10369000300048B13F4890F84C0004281CD13D4808
:1036A00090F83000042817D100213A4880F84E10D5
:1036B0009FED390A80ED0F0A90F84C0060B935484B
:1036C00090F8300040B99FED350A324880ED020A8B
:1036D0009FED320A80ED070A2E4890F84C00022830
:1036E0000CD12C4890F83000022807D1012129483C
:1036F00080F84E109FED280A80ED0F0A254890F8BB
:103700004C0003280CD1234890F83000032807D13F
:103710000021204880F84E10B1EE040A80ED0F0A17
:103720001C4890F83000052804D01A4890F8320060
:1037300001282ED1174890ED0D0AF7EE000A30EE61
:10374000200A80ED0D0AB1EE040A80ED0F0A90ED1B
:103750000D0ADFED120AB4EEE00AF1EE10FA18DB02
:10376000002180F832109FED0C0A80ED0D0A032035
:10377000084981F84C000321064880F830100020E9
:103780000449096E08700349496E0870014981F8BF
:1037900050007047740B00200000000000007A44C5
:1037A00010B54B480068C07A02280BD1484890F801
:1037B000320038B90020464981F84C0000214448C5
:1037C00080F8301042480068C07A012804D0404890
:1037D0000068C07A032879D13D4890F8320000286B
:1037E00074D101203A4981F84C000121384880F811
:1037F000301090ED020AD0ED040AB4EE600AF1EE4A
:1038000010FA13D190ED070AD0ED090AB4EE600A60
:10381000F1EE10FA0AD190F8320038B902202C49A2
:1038200081F84C0002212A4880F830102848006EA8
:10383000007801280BD1264890F8320038B90320CF
:10384000234981F84C000321214880F8301020489A
:10385000406E0078012839D11D4890F831000528C4
:1038600034D001201B4908700421194880F8301019
:103870000420174981F84C00084690ED100A80EDAD
:10388000110AD0ED110A9FED141A70EE810AB0EE04
:10389000600A9FED111ADFED110A02F059FC0C4885
:1038A00080ED110A90F8320080B9094890F8510073
:1038B00001280BD1064890F85300012806D10521B4
:1038C000034880F83010012180F8321010BD00004C
:1038D000740B002088000020DB0F4940DB0F49C03B
:1038E000042808D14FF0E021096941F004014FF0AC
:1038F000E022116107E04FF0E021096921F00401A5
:103900004FF0E022116170470148006870470000E5
:103910002C00002010B505480068401C03490860D1
:1039200002F090FF01F02CFE10BD000030000020DE
:1039300010B51548006840F470001349086013483A
:10394000006840F001001149086000200F4908316B
:1039500008600E4800680E4908400C4908600D4890
:10396000091D0860081F006820F48020091F0860F6
:10397000002006490C310860FFF76EFC4FF0006034
:1039800001498039086010BD88ED00E00038024030
:10399000FFFFF6FE1030002410B50121064800F0AC
:1039A00037F838B10121044800F014F8002102482A
:1039B00000F013F810BD00000010004021B1028893
:1039C00042F08002028004E002884FF67F731A40C2
:1039D00002807047CA430282704721B1028842F0D8
:1039E0000102028004E002884FF6FE731A40028052
:1039F000704731B1B0F8442042F40042A0F84420AE
:103A000005E0B0F84420C2F30E02A0F8442070474D
:103A100030B50246002000230024158A05EA010380
:103A2000958905EA010413B10CB1012000E00020E2
:103A300030BD000070B5002400220023058C4FF635
:103A4000FE7635400584028C8388048B4FF68F7593
:103A50002C40B51E2C400D882C43751E2A408D89A4
:103A60002A434D882A43104DA84202D00F4DA84248
:103A700013D14FF6F7752A40CD892A434FF6FB75CF
:103A80002A408D882A434FF6FF652B404FF6FF559D
:103A90002B400D8A2B434D8A2B43838004838D68F2
:103AA0004563028470BD0000000001400004014035
:103AB0000A460021018B4FF6F77319401143018329
:103AC0007047000070B5002400220023058C4FF6DB
:103AD000EF7635400584028C8388048B48F6FF75A9
:103AE0002C404FF6FF452C400D884FF6FF7606EA36
:103AF00005252C434FF6DF752A408D8906EA05150A
:103B00002A434D8806EA05152A43154DA84202D0DE
:103B1000144DA8421DD14FF67F752A40CD894FF62E
:103B2000FF7606EA05152A434FF6BF752A408D88B1
:103B300006EA05152A434FF6FF352B404FF2FF7575
:103B40002B400D8A06EA85052B434D8A06EA85053A
:103B50002B43838004838D688563028470BD0000DD
:103B600000000140000401400A460021018B4FF291
:103B7000FF7319404FF6FF7303EA022319430183D1
:103B80007047000070B5002400220023058C4FF61A
:103B9000FF6635400584028C8388848B4FF68F75D1
:103BA0002C404FF6FC752C400D882C434FF6FF55EA
:103BB0002A408D894FF6FF7606EA05252A434D886F
:103BC00006EA05252A43154DA84202D0144DA84205
:103BD0001DD14FF2FF752A40CD894FF6FF7606EAD8
:103BE00005252A434FF6FF352A408D8806EA05252C
:103BF0002A434EF6FF752B404DF6FF752B400D8A7C
:103C000006EA05152B434D8A06EA05152B438380EA
:103C100084838D68C563028470BD0000000001408C
:103C2000000401400A460021818B4FF6F7731940CA
:103C3000114381837047000070B5002200230024E7
:103C4000058C4EF6FF7635400584038C8488828B84
:103C500048F6FF752A404FF6FF452A400D884FF67B
:103C6000FF7606EA05252A434DF6FF752B408D8920
:103C700006EA05352B434D8806EA05352B430A4DE8
:103C8000A84202D0094DA84208D14BF6FF752C403E
:103C90000D8A4FF6FF7606EA85152C4384808283D1
:103CA0008D680564038470BD00000140000401407C
:103CB0000A460021818B4FF2FF7319404FF6FF73C4
:103CC00003EA022319438183704741637047C1634C
:103CD000704701647047000000220288184B984228
:103CE0000ED0184B98420BD0B0F1804F08D0164B35
:103CF000984205D0154B984202D0154B984204D1FA
:103D00004FF68F731A404B881A43124B984207D0D4
:103D1000114B984204D04FF6FF431A400B891A43C7
:103D200002804B68C3620B880385054B984202D022
:103D3000044B984201D18B7A03860123838270471A
:103D40000000014000040140000400400008004061
:103D5000000C0040001000400014004010B500F0BE
:103D600053FB10BD70B504460D4600200AE0225CEE
:103D70000C490B780978491C0A4E31700A49CA541B
:103D8000411CC8B2A842F2DB0848008800F080005D
:103D900030B9012240F2277104480C3800F09BFA38
:103DA00070BD000037000020300100200C7800407A
:103DB00010B50F48008800F0080010B10D48808849
:103DC000C4B240F225510A4800F05BFA78B140F2E3
:103DD0002551074800F0ABF90548001D0088C4B222
:103DE0002046FCF7D7FD2146014800F04FFB10BDEF
:103DF000007C00400050004010B540F2255134488E
:103E000000F03FFA18B1324800F0F4FA5FE040F2F7
:103E100024412F4800F035FA002858D02C4800F0F3
:103E2000E9FA2C48FDF723FD40BB00212948FDF7A6
:103E300041FC2848FDF717FDC0F124002649088001
:103E400024212448FDF76CFD2248006840F400203E
:103E50002049086021491F48FDF712FC01211D4837
:103E6000FDF728FC1C480088122830D11C491D4849
:103E7000FFF7A8F80020FDF757FD28E000211548BE
:103E8000FDF718FC1348FDF7EEFCC0F124001249C1
:103E9000088024210F48FDF743FD0E48006820F4F8
:103EA00000200C4908600D490A48FDF7E9FB012193
:103EB0000848FDF7FFFB08480088122807D1084989
:103EC00008482430FFF77EF80020FDF72DFD10BDD7
:103ED00000100140406402408000002000003010CB
:103EE000840A00209A0A002070B596B004460D4658
:103EF000164601214FF04010FEF7E2FE012120207E
:103F0000FEF70EFF01212020FEF71AFF00212020DE
:103F1000FEF716FF082209214448FEF7C5FA0822D9
:103F20000E214248FEF7C0FA4FF48440149002205C
:103F30008DF8540003208DF8550000208DF85600B0
:103F400001208DF8570014A93848FEF765FA4FF4A0
:103F5000E13010900020ADF84400ADF84600ADF817
:103F600048000C20ADF84A000020ADF84C0010A924
:103F70002F4800F0D5F9012240212D4800F0F2F839
:103F800010212B4800F0CAF8012240F224412848B1
:103F900000F0A1F90121264800F0D8F847208DF85B
:103FA0003C0002208DF83D0000208DF83E000120ED
:103FB0008DF83F000FA8FEF7DBFC1E48FDF786FBDF
:103FC0004FF0206000901A48001D019002940020DC
:103FD00003904FF400700490002005904FF480602F
:103FE00006900020079008904FF4807009904FF4DD
:103FF00040300A9000200B900C900D900E90694676
:104000000C48FDF761FC002229460A48FDF715FC23
:1040100001210848FDF706FC00210648FDF74AFB90
:1040200001210448FDF746FB16B070BD00180240A0
:10403000001401402864024010B540F22551304878
:1040400000F01FF918B12E4800F0D4F956E040F204
:1040500024412B4800F015F900284FD0284800F0E3
:10406000C9F92848FDF703FC20BB00212548FDF7CE
:1040700021FB2448FDF7F7FBC0F5007022490880BA
:104080004FF400711F48FDF74BFC1E48006840F4D8
:1040900000201C4908601D491A48FDF7F1FA01216A
:1040A0001848FDF707FB184802881949194801F01C
:1040B000D7F923E000211348FDF7FCFA1148FDF77A
:1040C000D2FBC0F50070104908804FF400710D4814
:1040D000FDF726FC0B48006820F400200949086021
:1040E0000A490848FDF7CCFA01210648FDF7E2FA33
:1040F000054802880849074801F0B2F910BD0000E0
:10410000001401402864024020010020000030100B
:10411000040C002004100020040E002001F40072A2
:10412000B2F5007F00D100BFCA430280704710B5CE
:104130000022002340F66A14A14200D100BF0A12F7
:1041400001249440A3B2DC43048010BD21B18289D4
:1041500042F40052828104E082894DF6FF731A40D6
:10416000828170471AB1838A0B43838202E0838A7B
:104170008B4383827047000010B504463248844266
:1041800008D101211020FEF7DBFD00211020FEF7F1
:10419000D7FD57E02D48844209D101214804FEF79C
:1041A000AFFD00214FF40030FEF7AAFD4AE0284899
:1041B000844209D101218804FEF7A2FD00214FF4B9
:1041C0008020FEF79DFD3DE02248844209D1012177
:1041D000C804FEF795FD00214FF40020FEF790FD86
:1041E00030E01D48844209D101210805FEF788FD11
:1041F00000214FF48010FEF783FD23E0174884422E
:1042000008D101212020FEF79BFD00212020FEF790
:1042100097FD17E01248844209D101218807FEF773
:104220006FFD00214FF08040FEF76AFD0AE00D4867
:10423000844207D101214005FEF762FD002160059F
:10424000FEF75EFD10BD000000100140004400407C
:1042500000480040004C0040005000400014014065
:1042600000780040007C004002460020B1F5007F4D
:1042700000D100BF13880B400BB1012000E00020EB
:10428000704770B50246002400230025002040F648
:104290006A16B14200D100BFC1F3421501F01F03FD
:1042A000012606FA03F3012D02D19689334006E078
:1042B000022D02D1168A334001E0968A33400C1257
:1042C000012606FA04F41688344013B10CB101201B
:1042D00000E0002070BDF0B5034600240026002554
:1042E000002040F66A17B94200D100BF1846C1F35A
:1042F000421401F01F06012707FA06F5012C01D12F
:104300000C3004E0022C01D1103000E014301AB15E
:1043100007682F43076002E00768AF430760F0BDFE
:104320002DE9FF4705460E460024A14600BFA046E2
:10433000B08900B100BF2C8A24F44054F0880443B3
:104340002C82AC8941F20C608443B08831890843E7
:10435000718908430443AC81AC8A24F44074B08969
:104360000443AC826846FEF7FBFC2048854202D03D
:104370001F48854202D1DDF80C9001E0DDF808907D
:10438000A88900F4004040B109EBC90000EB091016
:1043900031684900B0FBF1F707E009EBC90000EB19
:1043A000091031688900B0FBF1F76420B7FBF0F029
:1043B00004012009642101FB1078A88900F4004061
:1043C00040B1322000EBC800B0FBF1F000F0070074
:1043D000044308E0322000EB08106421B0FBF1F048
:1043E00000F00F0004432C81BDE8FF87001001405E
:1043F0000014014001468888C0F308007047C1F3EB
:10440000080282807047000010B51B48008800F049
:10441000080010B11848FFF7EDFF40F2255116488B
:10442000FFF72FFF40B140F225511348FFF77FFE01
:104430001148001D0088C4B240F227710E48FFF7F2
:1044400020FFC0B10D4801780078401C0B4A107065
:104450000B48405C0849091D08801046007809494E
:104460000978884207D104480C30008820F0800089
:1044700001490C31088010BD007800403600002052
:10448000300100203700002000BFFEE770B5044671
:104490000D4629462046FFF7B2FF00BF8021204687
:1044A000FFF7E2FE0028F9D070BDEFF310807047EF
:1044B0002DED020B019820F0004001909DED000BC6
:1044C00002B0704780F310887047D0ED000AF4EE18
:1044D000C00AF1EE10FA02DD80ED000A0CE0D0ED2A
:1044E000000AB1EE401AF4EEC10AF1EE10FA03D25E
:1044F000F1EE400AC0ED000A7047000070B50546B5
:104500000C4600260DB1022C00D870BDA11E064835
:104510000288284601F026F90646A01E2E54310ACC
:10452000601E295400BFF0E72201002070B5054647
:104530000C4600260DB1022C00D870BD611EFF2272
:10454000284601F029F90646601E2E5400BFF4E704
:1045500030B58BB005460C4601214020FEF7C0FB6C
:1045600001218020FEF7ACFB01214020FEF7C8FBB3
:1045700000214020FEF7C4FB092206212048FDF758
:1045800093FF4020099002208DF8280003208DF829
:10459000290000208DF82A0002208DF82B0009A99F
:1045A0001748FDF739FF6020ADF804000120ADF891
:1045B00006000020ADF8100001A91248FFF73AFAF2
:1045C00008211048FFF774FA01210E48FFF7F6F9A9
:1045D000681E0790601E80B2ADF818000020ADF88C
:1045E0001A00ADF8200006A90648FFF775FB012167
:1045F0000448FFF7F2F900F007F80BB030BD0000F7
:10460000001C02400018004010B500210148FFF7CF
:104610005CFB10BD0018004070B504460D46044810
:104620000480294602482838FFF74FFB70BD000080
:104630002818004010B5024800F00CFB10BD000027
:10464000C80300202DE9F04107460C4615461E46DA
:1046500017B10CB105B10EB9BDE8F0812048007862
:1046600030B933462A462146384600F035FE35E05B
:104670001B480078012806D133462A462146384691
:1046800000F0BAFB2AE016480078022806D133462B
:104690002A462146384600F04FFA1FE010480078BD
:1046A000032806D133462A462146384600F046F90B
:1046B00014E00B480078042806D133462A462146E8
:1046C000384600F077FB09E005480078052805D159
:1046D00033462A462146384600F0A4FB00BFBBE71C
:1046E0003C00002010B5044604B910BD2068807A53
:1046F000022803D101201F4908700AE02068807A4F
:10470000012803D102201B49087002E00120194949
:10471000087001F039FB10B10120164908701548E6
:10472000007810B90320207421E012480078012895
:1047300002D1022020741AE00E480078022802D12B
:104740000020207413E00B480078032802D10120D8
:1047500020740CE007480078042802D1022020745D
:1047600005E004480078052801D10320207400BF2B
:10477000BBE700003C00002030B52DED088B85B074
:1047800005469FED6D0AB0EE408A9FED6B0AB0EED4
:10479000409A9FED690AF0EE408A00200190029055
:1047A000039004900024D5ED801AB0EE611AD5ED87
:1047B0007F1AF0EE610AD5ED7E1AB0EE610A01A80B
:1047C00000F060FD287C03281AD100BF12E001A888
:1047D00000EB840090ED000ABDEEC00A10EE100A56
:1047E00001B204EB840205F1140000EB82000182A7
:1047F000601CC4B2042CEADB05B0BDEC088B30BDF4
:10480000002434E001A800EB840090ED000A04EBE2
:10481000840105F1140000EB810080ED030A04EB34
:10482000840205F1140000EB820090ED030A10EE03
:10483000101A084602F0B8FC41EC1B0BB0EE4B0A14
:10484000F0EE6B0AFFF734FEB0EE40AAF0EE60AA7D
:1048500051EC1A0B02F04CF808EE900AB4EEE88A1C
:10486000F1EE10FA01D2B0EE688A601CC4B2042CDA
:10487000C8DBB1EE000AB4EEC08AF1EE10FA1DDD1D
:10488000B1EE000AC0EE080AB0EE609A002413E010
:1048900004EB840105F1140000EB810090ED030AA4
:1048A00020EE090A04EB840105F1140000EB8100FD
:1048B00080ED030A601CC4B2042CE9DB00241DE077
:1048C00004EB840205F1140101EB820191ED031A5E
:1048D000F0EE410A04EB840205F1140101EB8201C0
:1048E00091ED021AB0EE410A04EBC40205F1640135
:1048F00001EBC200FEF782F8601CC4B2042CDFDBBF
:10490000002415E004EBC40105F1640000EBC100D4
:1049100090ED080ABDEEC00A10EE100A01B204EBD9
:10492000840205F1140000EB82000182601CC4B215
:10493000042CE7DB00BF5FE7000000002DE9F04139
:1049400006460F4615461C4616B10FB105B10CB907
:10495000BDE8F08122463946304600F091FAD4EDA8
:10496000830A2068B0F9040001EE100AB8EEC11AFB
:10497000DFED071A41EEC10AB0EE600A9FED051A9D
:10498000DFED050A01F0E4FB85ED000A00BFDFE77B
:10499000BD370636DB0F4940DB0F49C070B5044612
:1049A00004B970BD002500BF2DE005EB850104F1C1
:1049B000140050F82100B0F9020000EE100AB8EE21
:1049C000C00ADFED570A20EE200A05EB850104F14D
:1049D000140000EB810080ED020A05EBC50104F133
:1049E000640000EBC10090ED0C0ADFED4E0A20EEF2
:1049F000200A05EB850104F1140000EB810080ED35
:104A0000010A681CC5B2042DCFDB94ED070AB1EE94
:104A1000400AD4ED0C0A30EE200AD4ED110A30EE33
:104A2000200AD4ED160A30EE600AF5EE000A20EEF8
:104A3000200A84ED7B0A94ED070AB1EE400AD4ED1A
:104A40000C0A30EE600AD4ED110A30EE200AD4EDE3
:104A5000160A30EE200AF5EE000A20EE200A84ED58
:104A60007C0A94ED070AB1EE400AD4ED0C0A30EE50
:104A7000600AD4ED110A30EE600AD4ED160A30EE69
:104A8000600AF5EE000A20EE200ADFED270A80EE2C
:104A9000201A84ED7D1AE068D0ED000A606890ED80
:104AA0002E1A70EEC10AB0EE600A9FED201ADFEDFB
:104AB000200A01F04DFB84ED880AE068D0ED010A80
:104AC000A06890ED2E1A70EEC10AB0EE600A9FED5C
:104AD000171ADFED170A01F03BFB84ED890AE06845
:104AE00090ED020A84ED8A0AD4F82C02017840F293
:104AF00033200155D4F82C02417840F23220015580
:104B0000D4F82C02408800EE100AB8EE400ADFED1F
:104B1000090A80EE201A84ED8D1A00BF41E70000DB
:104B20000A01DA390000FA43CDCC4C3EDB0F494094
:104B3000DB0F49C00000C8422DE9F04106460F4690
:104B400015461C4616B10FB105B10CB9BDE8F08190
:104B500022463946304600F093F92068C07A012891
:104B60000BD13348007858B90120314908709FEDC6
:104B7000310A314880ED000A02E000202C4908701B
:104B80002068007D00F0010070B92068007D00F011
:104B9000020048B92068007D00F0040020B92068B8
:104BA000007D00F0080028B19FED240A244880ED24
:104BB000000A04E09FED230A214880ED000A1C480A
:104BC0000078B0B11C4890ED000AFBF7C1FB1C480F
:104BD000D0ED000A20EE200A1B4880ED000A16489E
:104BE00090ED000ADFED190A30EE200A80ED000A90
:104BF00004E09FED100A144880ED000A0E4890ED85
:104C0000000ADFED130AB4EEE00AF1EE10FA07DD58
:104C100090ED000ADFED0E0A30EE600A80ED000A2A
:104C2000094890ED000A85ED000A00BF8EE70000FC
:104C30004C00002000000000400000207CD9A03E75
:104C4000480000203333333F440000202EE34D3C26
:104C5000DB0FC94070B5044604B970BD0320207451
:104C600000F0E0FD206000F0B5FDE06000F0F0FD38
:104C7000606000F0CFFDA060002517E0284600F03E
:104C80009DFD05EB850204F1140141F8220005EBBE
:104C9000C502503101EBC200DFED250A9FED250A68
:104CA000254A0021FDF7A2FF681CC5B2042DE5DBF3
:104CB000DFED220AB1EE080A214A002104F5C27094
:104CC000FDF794FF1F499FED200A04F5E67000F000
:104CD00045FC1E499FED1C0A04F5EE7000F03EFCF9
:104CE000B0EE080A84ED840AB8EE080A84ED850A5D
:104CF0009FED170A84ED860A9FED160A84ED870A58
:104D000000F07CFDC4F82C0200214FF40C7001551A
:104D1000801C0155401E0155801C01559FED0E0A57
:104D200084ED8D0A2046FFF739FE00BF95E70000AD
:104D30000000FA4400007A4694750008CDCC4C3E41
:104D4000A0750008AC7500086F12033BB075000831
:104D50009A9939409A9939C00000000000B970470B
:104D6000417C027C914200D1F9E7417C31B1017C68
:104D700021B99FED0F0A80ED820A14E0417C0129E0
:104D800007D0017C012904D190ED880A80ED830AC7
:104D900009E0417C022906D0017C022903D190ED73
:104DA000880A80ED830A017C417400BFD7E70000C8
:104DB000000000002DE9F04106460F4615461C464E
:104DC00016B10FB105B10CB9BDE8F08122463946E4
:104DD000304600F055F82068B0F9040000EE100AE3
:104DE000B8EEC00ADFED030A20EE200A85ED000AC6
:104DF00000BFE9E70AD723BC10B109B102B103B97A
:104E000070479FED070A80ED000A9FED050A81EDCE
:104E1000000A9FED030A82ED000A00BFF0E70000E0
:104E20000000000010B510B109B102B103B910BD06
:104E30001C68B4F9024004EB8404640000EE104ADC
:104E4000B8EEC00A80ED000A1C68B4F90040644264
:104E500004EB8404640000EE104AB8EEC00A81ED51
:104E6000000A1C68B4F90440644204EB8404640042
:104E700000EE104AB8EEC00A82ED000A00BFD6E785
:104E80002DE9F0412DED028B0746884614461CB1F2
:104E900017B1B8F1000F03D1BDEC028BBDE8F08172
:104EA0002068B0F902000A2805DC2068B0F9020089
:104EB00010F10A0F03DA2068B0F9025000E0002573
:104EC0002068B0F900000A2805DC2068B0F900006D
:104ED00010F10A0F03DA2068B0F9006000E0002644
:104EE00000EE105AB8EEC00ADFED350A20EE208A37
:104EF00000EE106AB8EEC00ADFED320A60EE208ADA
:104F00002068007D00F0010020B19FED2F0AB0EE77
:104F1000408A08E02068007D00F0020018B19FED93
:104F20002B0AB0EE408A2068007D00F0040020B11A
:104F30009FED270AF0EE408A08E02068007D00F02F
:104F4000080018B19FED230AF0EE408AB0EE480A3F
:104F500004F5E67000F0D7FAB0EE680A04F5EE70DA
:104F600000F0D1FA9FED1C0AB4EEC08AF1EE10FAFF
:104F70000AD29FED1A0AB4EEC08AF1EE10FA03DDF0
:104F80009FED170A84ED740A9FED160AF4EEC08AAD
:104F9000F1EE10FA0AD29FED140AF4EEC08AF1EE97
:104FA00010FA03DD9FED0E0A84ED780A94ED740A81
:104FB00087ED000A94ED780A88ED000A00BF6BE7E0
:104FC000A69BC43B0AD7A3BB6666A63F6666A6BF80
:104FD0009A99993F9A9999BF90C2753D90C275BDB3
:104FE00000000000CCCC4C3DCCCC4CBD10B52DED20
:104FF000028B84B004461CB904B0BDEC028B10BD1A
:105000009FED860A8DED030A9FED840A8DED020A5D
:105010009FED820A8DED010A234601AA02A903A889
:10502000FFF710FB207C002870D19FED7C0AB0EECA
:10503000408A9FED7A0AF0EE408A6068D0ED2E0A31
:10504000F1EE600AB0EE600AFBF782F9B0EE408A3A
:105050006068D0ED2E0AF1EE600AB0EE600AFBF750
:105060003BF9F0EE408A9DED030A28EE800ADDED63
:10507000020A08EE200A84ED7E0AB1EE480ADDED50
:10508000030A20EE200ADDED020A08EEA00A84EDF4
:105090007F0A9FED631ADFED630A9DED010A01F0BF
:1050A00057F884ED820A94ED821AF0EE410A6068A6
:1050B00090ED2E1AB0EE410A04F5C270FDF79EFC89
:1050C000B1EE400A84ED800AD4ED841AB0EE611A84
:1050D000D4ED851AF0EE610AD4ED7E1AB0EE610AC5
:1050E00000F088FA84ED7E0AD4ED861AB0EE611ADB
:1050F000D4ED871AF0EE610AD4ED7F1AB0EE610AA2
:1051000000F078FA84ED7F0A85E0FFE7207C012833
:1051100044D19FED420AB0EE408A9FED411ADFED87
:10512000410A9DED010A01F013F884ED830AD4EDE4
:10513000830A94ED881A70EEC10AB0EE600A9FED02
:10514000381ADFED380A01F003F8B0EE408AF0EECD
:10515000480A9FED320A04F5C270FDF74FFC84ED5A
:10516000800A94ED840AB0EE401A94ED850AF0EEC0
:10517000400A9DED030A00F03DFA84ED7E0A94EDAD
:10518000860AB0EE401A94ED870AF0EE400A9DEDD3
:10519000020A00F02FFA84ED7F0A3CE0207C02280E
:1051A00022D19DED010AB0EE408A84ED808A94ED13
:1051B000840AB0EE401A94ED850AF0EE400A9DEDA7
:1051C000030A00F017FA84ED7E0A94ED860AB0EE29
:1051D000401A94ED870AF0EE400A9DED020A00F0B5
:1051E00009FA84ED7F0A16E0207C032813D19DED97
:1051F000030A84ED7E0A9DED020A84ED7F0A9DED8F
:10520000010A84ED800A9FED050A84ED740A9FED82
:10521000030A84ED780A00BFEEE6000000000000FB
:10522000DB0F4940DB0F49C010B5044604B910BD7F
:105230002046FFF757FA204601F094FA00BFF6E740
:1052400010B50F48FFF7F0FF0D48FFF787FD0C483A
:10525000FFF7A4FB0A48FFF7C9FE0948FFF78CFADD
:10526000074801F0D1FA064CB4F96030B4F94C208B
:10527000B4F93810B4F92400FBF78EFD10BD00001E
:10528000C8030020F1EE401A71EEE01A9FED102ADB
:1052900042EE011AC0ED001A70EE601A9FED0C2A62
:1052A00042EE011AC0ED011A70EE201A9FED092A94
:1052B00042EE011AC0ED021AF1EE401A71EEA01A88
:1052C0009FED042A42EE011AC0ED031A7047000058
:1052D000EB5138BEAF4761BE10B109B102B103B99D
:1052E00070479FED070A80ED000A9FED050A81EDEA
:1052F000000A9FED030A82ED000A00BFF0E70000FC
:105300000000000070B504460025681FFEF7E8FAAB
:10531000134800681349B0FBF1F0134908701048B6
:1053200000684FF4FA51B0FBF1F0104908600CB975
:105330004FF47A740A480068B0FBF4F0C5086D1E9B
:105340004FF0E020006940F002004FF0E0210861DA
:1053500008464561006940F00100086170BD000029
:105360000000002000127A00240000202800002005
:1053700070B50346002400210020002200254FF0D4
:10538000E02675690D4E366803FB06F44FF0E02603
:10539000B16910E04FF0E026B06988420BD0884236
:1053A00002D20E1A324402E02E1A0E443244014652
:1053B000A24200D300E0EDE700BF70BD280000204E
:1053C00070B50346002400210020002200254FF084
:1053D000E02675690D4E367803FB06F44FF0E026A3
:1053E000B16910E04FF0E026B06988420BD08842E6
:1053F00002D20E1A324402E02E1A0E443244014602
:10540000A24200D300E0EDE700BF70BD2400002001
:1054100070B504460026FFF748F8054672B6616885
:105420002069884201D920682061206906782069B6
:10543000401C2061A068401CA060E068401EE06045
:105440002846FFF73FF8304670BD034619608818BC
:10545000401E58609A600020D860196159617047F9
:105460002DE9F047044688461546FFF71EF88246A8
:1054700072B6B8F1000F00D13CE0A06800B939E085
:1054800061686069884201D920686061A068A842AB
:1054900001DD284600E0A068054661696068401AA1
:1054A000461CAE4209DB2E46324641466069FAF799
:1054B00089FF6069304460610FE0A5EB0609324660
:1054C00041466069FAF77EFF08EB06014A4620680C
:1054D000FAF778FF206848446061A068401BA0602C
:1054E000E0682844E0602F465046FEF7EBFF384660
:1054F000BDE8F0875046FEF7E5FF4FF0FF30F7E7D5
:105500000146C868704710EE101A0160816800EE0D
:10551000901AC16801EE101A70EE811A816800EECF
:10552000901A80EEA11A416800EE901A61EE200AEE
:10553000816801EE101AC16801EE901A31EE212A3D
:1055400001EE101AC1EE021A016801EE101A41EEC6
:10555000810A10EE901A41607047000010EE102A88
:10556000C2600A688260DFED050A10EE902A0260D0
:10557000DFED020A10EE902A426070470000000042
:1055800010B50E480078401C0C4908700846007899
:10559000322811D10A48007800F020F80848007835
:1055A000401C0749087008460078082801D10020EF
:1055B000087000200149087010BD00003400002070
:1055C0003500002010B504464FF4807040FA04F115
:1055D0000148FCF78EFF10BD0018024010B50446CC
:1055E0004FF4807040FA04F10148FCF784FF10BDCD
:1055F00000180240F0EE401AF4EEE01AF1EE10FA54
:1056000002D2B0EE600A7047F4EEC11AF1EE10FA61
:1056100002DDB0EE410AF6E7B0EE610AF3E7000002
:1056200010B5044621460248FEF751FB10BD0000AC
:105630000004014010B5044621460248FEF749FB2C
:1056400010BD00000004014000B58BB00121022014
:10565000FDF766FB01210802FDF732FB032207215B
:105660003748FCF721FF8020099002208DF82800A0
:1056700003208DF8290000208DF82A0001208DF8E4
:105680002B0009A92E48FCF7C7FE032202212C4853
:10569000FCF70AFF0420099002208DF8280003205F
:1056A0008DF8290000208DF82A0001208DF82B00AC
:1056B00009A92348FCF7B0FE40F2CF700790B32051
:1056C000ADF818000020ADF81A00ADF8200006A9CA
:1056D0001C48FEF701FB6020ADF804000120ADF886
:1056E00006000020ADF81000ADF808000820ADF865
:1056F00012004001ADF814000020ADF816004FF480
:105700007A70039001A90F48FEF73CFA08210D4872
:10571000FEF788FA01A90B48FEF78EFA082109481E
:10572000FEF7C6FA01210748FEF748F901210548AE
:10573000FEF75FF901210348FEF74FF90BB000BDFA
:10574000002002400004014010B54FF47A71044873
:10575000FEF7BDFA4FF47A710148FEF7BAFA10BDB0
:105760000004014030B5034613B94FF6FF7030BD59
:1057700009E013F8014B82EA0400C0B2054D35F888
:10578000100080EA2222081EA1F10101F1D1104689
:10579000EDE70000F276000830B5034605E013F8A7
:1057A000010B80EA02040448025D081EA1F1010118
:1057B000F5D1104630BD0000F1750008014601F03A
:1057C000030000EB8000024A02EB4000704700003B
:1057D0005803002000487047C8090020004870475F
:1057E00058160020004870474C16002000487047AB
:1057F0003A030020004870474E03002000487047DD
:105800008003002000487047FC05002000487047D6
:1058100030030020004870473008002000487047DF
:105820004714002000487047840A00200048704751
:1058300038140020014609B903487047012901D1F5
:105840000248FAE700BFF8E72D0100202E010020F2
:1058500000487047500700202DE9F0412DED048BE2
:1058600005460E4614460DB106B11CB9BDEC048BBD
:10587000BDE8F0812068808A00F40070D8B1384813
:10588000008800F40070B0B93648007898B901205B
:1058900034490870D4ED330A9FED331A70EE810A53
:1058A000B0EE600A9FED301ADFED300A00F050FCD8
:1058B0002F4880ED000A2068808A294908802948FD
:1058C0000078E0B1D4ED330A294890ED001A71EE6A
:1058D000600AB0EE600A9FED241ADFED240A00F0A2
:1058E00037FCB5EEC00AF1EE10FA04DDB0EE000AA6
:1058F00085ED000A03E09FED1F0A85ED000A1948B7
:10590000007858B3D4ED330A194890ED001A71EEBF
:10591000600AB0EE600A9FED141ADFED140A00F081
:1059200017FC10EE107A384601F03EFC41EC190BE2
:10593000B0EE490AF0EE690AFEF7BAFDB0EE408A11
:10594000F0EE608A9FED0C0B53EC102B51EC180B12
:1059500001F04AF902D200200249087000BF85E731
:105960006600002068000020DB0F4940DB0F49C0C3
:105970006C0000200000000000000040E17A843F3D
:1059800070B505460E4614460DB106B104B970BD9A
:105990002068B0F904000A2805DC2068B0F904008A
:1059A00010F10A0F04DA206880884849088002E074
:1059B0000020464908802068B0F906000A2805DC66
:1059C0002068B0F9060010F10A0F04DA2068C088D8
:1059D0003F49088002E000203D4908803B48B0F97B
:1059E000000000EE100AB8EEC00ADFED3A0A20EE21
:1059F000200A2068B0F90C0000EE900AF8EEE00AE8
:105A00009FED351A00EEC10A344880ED000A304897
:105A1000B0F9000000EE100AB8EEC00ADFED300A5F
:105A200020EE200A2068B0F90E0000EE900AF8EE91
:105A3000E00A9FED2C1A00EE810A2B4880ED000A47
:105A40002A48007828B922462749244800F098FAC5
:105A500030E026480078012805D1224622491F4817
:105A600000F0A8F926E021480078022805D1224656
:105A70001D491A4800F0A0F81CE01C4800780328D3
:105A800005D1224618491548FFF7E6FE12E01748EF
:105A90000078042805D122461349104800F06AFA1C
:105AA00008E012480078052804D122460E490B4828
:105AB00000F0E2F9094890ED000A85ED000A0A4875
:105AC00090ED000A86ED000A00BF60E7600000204C
:105AD00062000020ACC5A7B617B7D1375800002028
